:020000040800F2
:100000001004002001010008EF020008E7020008C8
:10001000EB020008490100081D0E00080000000066
:10002000000000000000000000000000690500085A
:100030004D01000800000000F10200083D06000824
:100040001B0100081B0100081B0100081B01000820
:100050001B0100081B0100081B0100081B01000810
:100060001B0100081B0100081B0100081B01000800
:100070001B0100081B0100081B0100081B010008F0
:100080001B0100081B0100081B0100081B010008E0
:100090001B0100081B0100081B0100081B010008D0
:1000A0001B0100081B0100081B0100081B010008C0
:1000B0001B0100081B0100081B0100081B010008B0
:1000C0001B0100081B0100081B0100081B010008A0
:1000D0001B0100081B0100081B0100081B01000890
:1000E0001B0100081B0100081B010008DFF80CD0F1
:1000F00000F018F800480047410E000810040020E6
:100100000648804706480047FEE7FEE7FEE7FEE7B1
:10011000FEE7FEE7FEE7FEE7FEE7FEE74106000832
:10012000ED000008064C074D06E0E06840F00103D2
:1001300094E8070098471034AC42F6D3FFF7DAFF93
:10014000A80E0008C80E000800BFFEE770470000B8
:1001500010B5044600F00EF94FF0E020006920F0E1
:1001600004004FF0E02108610846006920F0020019
:100170000861E11704EB5171C910074A117010466C
:10018000007800EB4001C1EBC0104FF6FF7101EAAF
:10019000C0000249088010BD0E0000200C000020A5
:1001A00008B50121084600F0C5F80121042000F03F
:1001B000C1F840F60370ADF8000018208DF8030078
:1001C00003208DF802006946014800F003F808BDDD
:1001D000000801402DE9F0410246002500260020DC
:1001E00000230024002791F803C00CF00F0591F8BC
:1001F00003C01CF0100F03D091F802C04CEA0505B3
:1002000091F800C0BCF1000F31D0146800202BE041
:100210004FF0010C0CFA00F3B1F800C00CEA030631
:100220009E4220D183004FF00F0C0CFA03F7BC4321
:1002300005FA03FC4CEA040491F803C0BCF1280F52
:1002400006D14FF0010C0CFA00FCC2F814C00AE011
:1002500091F803C0BCF1480F05D14FF0010C0CFA26
:1002600000FCC2F810C0401C0828D1D31460B1F8BB
:1002700000C0BCF1FF0F34DD546800202EE000F117
:10028000080C4FF0010808FA0CF3B1F800C00CEAB2
:1002900003069E4221D183004FF00F0C0CFA03F7A6
:1002A000BC4305FA03FC4CEA040491F803C0BCF11A
:1002B000280F05D100F1080C08FA0CF8C2F81480D8
:1002C00091F803C0BCF1480F07D100F1080C4FF0C2
:1002D000010808FA0CF8C2F81080401C0828CED398
:1002E0005460BDE8F08100BFFEE700BFFEE7704745
:1002F0007047000029B1064AD2690243044BDA6113
:1003000004E0034AD2698243014BDA61704700007E
:100310000010024029B1064A12690243044B1A61D7
:1003200004E0034A12698243014B1A6170470000DE
:100330000010024029B1064A92690243044B9A61B7
:1003400004E0034A92698243014B9A6170470000BE
:100350000010024029B1064AD2680243044BDA6019
:1003600004E0034AD2688243014BDA607047000020
:100370000010024010B500F029F84FF4803000F072
:100380007DF800F0D9F80446012C1ED1002000F0C1
:1003900069F8002000F0A4F8A00200F095F84FF4EE
:1003A000E011200400F0AEF8012000F0A5F800BF35
:1003B000392000F031F80028FAD0022000F0B0F81F
:1003C00000BF00F047F80828FBD110BD0F480068B7
:1003D00040F001000D490860084640680C4908409B
:1003E0000A494860084600680A4908400749086009
:1003F0000846006820F4802008600846406820F421
:10040000FE0048604FF41F008860704700100240F3
:100410000000FFF8FFFFF6FE10B5014600220023A2
:1004200000204A11012A02D1094C236806E0022A61
:1004300002D1074C236A01E0054C636A01F01F02F8
:10044000012494401C4201D0012000E0002010BD96
:10045000001002400248406800F00C0070470000A5
:100460000010024001460020034A506820F0F000CE
:1004700008435060704700000010024011490968AD
:1004800021F480310F4A11601146096821F480215E
:100490001160B0F5803F03D0B0F5802F0ED106E09B
:1004A0000849096841F48031064A116007E00549AE
:1004B000096841F4A021034A116000E000BF00BFB9
:1004C000704700000010024001460020034A5068B7
:1004D00020F4E060084350607047000000100240C4
:1004E00001460020034A506820F4605040EAC100F1
:1004F00050607047001002400149086670470000D4
:100500000000424202460020044B586820F47C1050
:1005100042EA01031843014B586070470010024043
:1005200001460020034A506820F003000843506051
:10053000704700000010024070B50024002500261E
:1005400000BF3120FFF768FF0646641CB4F5A06FBA
:1005500001D0002EF5D03120FFF75EFF08B1012554
:1005600000E00025284670BD704710B500F002F885
:1005700010BD0000002100202E4A126842F4803293
:100580002C4B1A6000BF2B4A126802F40030491C41
:1005900010B9B1F5A06FF6D1264A126812F4003FE7
:1005A00001D0012000E00020012842D1224A126837
:1005B00042F01002204B1A601A46126822F0030221
:1005C0001A601A46126842F002021A60194A52680A
:1005D000184B5A601A4652685A601A46526842F4DA
:1005E00080625A601A46526822F47C125A601A4697
:1005F000526842F4E8125A601A46126842F0807259
:100600001A6000BF0B4A126812F0007FFAD0094A44
:10061000526822F00302074B5A601A46526842F0B1
:1006200002025A6000BF034A526802F00C02082A14
:10063000F9D17047001002400020024070470000CE
:1006400010B51348006840F00100114908600846E1
:100650004068104908400E494860084600680E4945
:1006600008400B4908600846006820F480200860B4
:100670000846406820F4FE0048604FF41F00886080
:10068000FFF773FF4FF000600449086010BD0000E1
:10069000001002400000FFF8FFFFF6FE08ED00E04A
:1006A00000B587B00121C802FFF744FE404800F0C2
:1006B00001F90720ADF810000020ADF812004FF44A
:1006C0007A60ADF814000020ADF816008DF818001F
:1006D00004A9374800F050FB684600F03AFB602060
:1006E000ADF800000120ADF802000420ADF80400D0
:1006F0003048008880B2ADF806000220ADF808004E
:1007000069462B4800F0CAF90821294800F012FA7E
:100710000120ADF802002748008880B2ADF806003D
:100720000220ADF808006946214800F00DFA0821C2
:100730001F4800F05BFA0120ADF802001E48008857
:1007400080B2ADF806000220ADF8080069461848EE
:1007500000F05AFA0821164800F0A6FA0120ADF878
:1007600002001548008880B2ADF806000220ADF8FE
:10077000080069460E4800F0A1FA08210C4800F074
:10078000DBFA01210A4800F06DF80948443000887E
:1007900040F400400649443108800121044800F03B
:1007A0006DF80121024800F075F807B000BD0000A7
:1007B000002C0140000000200400002000B587B09C
:1007C00001210846FFF796FD4FF0804000F072F8D7
:1007D0000720ADF810000020ADF812004FF47A6049
:1007E000ADF814000020ADF8160004A94FF08040C9
:1007F00000F0C2FA684600F0ACFA6020ADF80000E4
:100800000120ADF802001648008880B2ADF806005D
:100810000220ADF808006946400700F03FF90821C2
:10082000C80600F087F90120ADF802000C480088E6
:1008300080B2ADF806000220ADF808006946400716
:1008400000F082F90821C80600F0D0F901218807DC
:1008500000F008F80121880700F010F807B000BD8B
:100860000800002021B1028842F08002028004E0EA
:1008700002884FF67F731A400280704721B10288C8
:1008800042F00102028004E002884FF6FE731A4033
:100890000280704731B1B0F8442042F40042A0F821
:1008A000442005E0B0F84420C2F30E02A0F8442032
:1008B0007047000010B504466848844208D1012101
:1008C000C014FFF747FD0021E014FFF743FDC4E02B
:1008D000B4F1804F08D101210846FFF71BFD00212C
:1008E0000120FFF717FDB8E05D48844208D10121DF
:1008F0000220FFF70FFD00210220FFF70BFDACE007
:100900005848844208D101210420FFF703FD00214B
:100910000420FFF7FFFCA0E05348844208D10121E6
:100920000820FFF7F7FC00210820FFF7F3FC94E014
:100930004E48844208D101211020FFF7EBFC002132
:100940001020FFF7E7FC88E04948844208D10121E4
:100950002020FFF7DFFC00212020FFF7DBFC7CE0FC
:100960004448844208D101214014FFF7F3FC0021E0
:100970006014FFF7EFFC70E03F48844209D1012189
:10098000C804FFF7E7FC00214FF40020FFF7E2FC6A
:1009900063E03A48844209D101210805FFF7DAFCF7
:1009A00000214FF48010FFF7D5FC56E03448844214
:1009B00009D101214805FFF7CDFC00214FF40010BB
:1009C000FFF7C8FC49E02F48844208D101214020AC
:1009D000FFF7A0FC00214020FFF79CFC3DE02A48E7
:1009E000844208D101218020FFF794FC002180205F
:1009F000FFF790FC31E02548844208D101218015A1
:100A0000FFF788FC0021A015FFF784FC25E02048B3
:100A1000844209D101210804FFF79CFC00214FF416
:100A20008030FFF797FC18E01A48844209D1012171
:100A30004804FFF78FFC00214FF40030FFF78AFCD9
:100A40000BE01548844208D101218804FFF782FC9D
:100A500000214FF48020FFF77DFC10BD002C0140E9
:100A60000004004000080040000C0040001000405E
:100A70000014004000340140004C0140005001408F
:100A80000054014000180040001C004000200040BD
:100A900000400140004401400048014070B500247E
:100AA00000220023058C4FF6FE7635400584028C2B
:100AB0008388048B4FF68F752C40B51E2C400D8813
:100AC0002C43751E2A400D892A434D882A43144D14
:100AD000A8420BD0134DA84208D0134DA84205D010
:100AE000124DA84202D0124DA84213D14FF6F7750D
:100AF0002A404D892A434FF6FB752A408D882A43A8
:100B00004FF6FF652B404FF6FF552B408D892B4349
:100B1000CD892B4383800483CD888586028470BD74
:100B2000002C0140003401400040014000440140DD
:100B3000004801400A460021018B4FF6F773194027
:100B4000114301837047000070B500240022002388
:100B5000058C4FF6EF7635400584028C8388048B34
:100B600048F6FF752C404FF6FF452C400D884FF698
:100B7000FF7606EA05252C434FF6DF752A400D89DE
:100B800006EA05152A434D8806EA05152A43154D40
:100B9000A84202D0144DA8421DD14FF67F752A40BD
:100BA0004D894FF6FF7606EA05152A434FF6BF75C5
:100BB0002A408D8806EA05152A434FF6FF352B405B
:100BC0004FF2FF752B408D8906EA85052B43CD89B1
:100BD00006EA85052B4383800483CD88058702843C
:100BE00070BD0000002C0140003401400A46002185
:100BF000018B4FF2FF7319404FF6FF7303EA022394
:100C0000194301837047000070B5002400220023BF
:100C1000058C4FF6FF6635400584028C8388848BF3
:100C20004FF68F752C404FF6FC752C400D882C43E9
:100C30004FF6FF552A400D894FF6FF7606EA052547
:100C40002A434D8806EA05252A43154DA84202D0BD
:100C5000144DA8421DD14FF2FF752A404D894FF621
:100C6000FF7606EA05252A434FF6FF352A408D8890
:100C700006EA05252A434EF6FF752B404DF6FF7513
:100C80002B408D8906EA05152B43CD8906EA05150B
:100C90002B4383808483CD888587028470BD0000C8
:100CA000002C0140003401400A460021818B4FF6A0
:100CB000F7731940114381837047000070B500221B
:100CC00000230024058C4EF6FF7635400584038C06
:100CD0008488828B48F6FF752A404FF6FF452A40EC
:100CE0000D884FF6FF7606EA05252A434DF6FF7577
:100CF0002B400D8906EA05352B434D8806EA05355C
:100D00002B430B4DA84202D00A4DA84208D14BF606
:100D1000FF752C408D894FF6FF7606EA85152C432A
:100D200084808283CD88A0F84050038470BD000089
:100D3000002C0140003401400A460021818B4FF213
:100D4000FF7319404FF6FF7303EA022319438183AF
:100D500070470021018041808180C18001814181F3
:100D60008181C18170478186704701877047818783
:100D70007047A0F840107047002202881D4B98422F
:100D80000ED01D4B98420BD0B0F1804F08D01B4BBA
:100D9000984205D01A4B984202D01A4B984204D17F
:100DA0004FF68F731A404B881A43174B984207D05F
:100DB000164B984204D04FF6FF431A40CB881A4393
:100DC00002808B8883850B8803850A4B98420BD061
:100DD000094B984208D00E4B984205D00D4B9842D3
:100DE00002D00D4B984201D10B7A038601238382F6
:100DF00070470000002C0140003401400004004016
:100E000000080040000C00400010004000140040AA
:100E100000400140004401400048014000BFFEE79F
:100E200002E008C8121F08C1002AFAD170477047B3
:100E3000002001E001C1121F002AFBD17047000011
:100E400000BF4820FFF784F9FFF7AAF9FFF728FC55
:100E5000FFF7B4FC25E001211248FFF70FFD012147
:100E60008807FFF70BFD1BE04FF47A610D48FFF791
:100E70007AFF00210B48FFF778FF00210948FFF7B0
:100E800076FF40F6B8310748FFF773FF00214FF0B7
:100E90008040FFF768FF4FF47A71C806FFF765FFDF
:100EA000E2E7D8E7002C0140C80E0008000000204F
:100EB00010000000200E0008D80E000810000020CE
:100EC00000040000300E0008D0070000D00700002A
:080ED000D00700000000000043
:04000005080000ED02
:00000001FF
